:020000040000FA
:0600000002010A021DDEF0
:03002B0002222688
:030033000222089E
:03005300021E5436
:03005B0002223F3F
:03006B000221E28D
:10008300021CCFE5C754F84401F5C77901220000EB
:100093000080FB120086B900030200F4E4792178A2
:1000A30008B800028004F709D8FCE479297802B87B
:1000B30000028004F709D8FCE490028178507908A3
:1000C3008002F0A3D8FCD9FA9009D0AA82AB83901E
:1000D300013A789279048015E493A3AC82AD838AC4
:1000E300828B83F0A3AA82AB838C828D83D8E9D9D8
:1000F300E775826F75839A740312011C758291757B
:100103008300740012011C75D00075813F7518813E
:10011300751902759F00020096C09FF59FE473D086
:100123009F22D083D082C09FE493C0E0740193C028
:10013300E0740293F59F22FF0000B400002800281A
:1001430000283075A000A000A000A000000800084F
:10015300E001F0001000100010001000100010006B
:1001630050005000500010001000D00700000000A5
:1001730000000F00010005003075070010000100AA
:1001830081FF0000FFC906E706CF06FF020202084F
:10019300025000A0000000E80302E991010000DA28
:1001A3009102E591010000250A02DF91010000B2EE
:1001B3000202E591010000260A02DD91010000C858
:1001C3000202E591010000270A02EB91010000CA37
:1001D3000202E591010000280A02EF91080000CB1A
:1001E3000202E591010000290A02F5910100002AAB
:1001F3000AFF0100FF2002E991010000D49102E50A
:10020300910100008E0A020592000000000002E145
:10021300910300001803ED0CED0CED0CED0CED0C4F
:10022300ED0CED0CED0CED0CED0CED0CED0CED0C03
:10023300BD0FD50FB70FFFFF020202020202020237
:1002430002010D000000100102E991010000D191AB
:1002530002E591010000D10A02F391010000780741
:1002630002E591010000D20A02F791010000F89023
:1002730002E591010000D30A02F991010000C09048
:1002830002E591010000D40A02FB91010000768F80
:1002930002E591010000D50A02FD910100009A8F49
:1002A30002E591010000D60A020392010000648F67
:1002B30002E591010000D70A021F92010000AC8FF2
:1002C30002E591010000D80A020992010000A490FE
:1002D30002E591010000D90A020792010000DA0A3F
:1002E30001E803053F10FF0001307503020106001A
:1002F30000000000000000000000000000000000FB
:100303000000000000000000000000FFFF06008066
:100313000CE8036401140953696D706C65424C4524
:100323005065726970686572616C0512060006009B
:10033300020A000201060302F0FF53696D706C6547
:1003430020424C45205065726970686572616C0D7E
:1003530014000013140A436861726163746572695F
:100363007374696320310002436861726163746569
:100373007269737469632032000843686172616350
:100383007465726973746963203300104368617222
:10039300616374657269737469632034000243682E
:1003A3006172616374657269737469632035000AED
:1003B300434E545F53455400000A494E4D4F444544
:1003C3004C2053455400000A434F4C4F5552205381
:1003D300455400000A434952434C205345540000FE
:1003E30002E991010000D79102E591010000EE0BB3
:1003F300020D92030000960902E391010000EF0B46
:1004030002E591010000000C020F92010000970920
:1004130002E391010000010C02E591010000120CBE
:10042300021192020000980902E391010000130CEB
:1004330002E591010000240C0213920000009909C7
:1004430002E1910300009A0902E391010000250CE7
:1004530002E591010000360C021592040000A00988
:1004630002E391010000370C02E591010000480C02
:10047300021792030000A50902E391010000490C51
:1004830002E591010000520C021992030000AF092A
:1004930002E391010000530C02E591010000600C9E
:1004A300021B92030000B10902E391010000610CF9
:1004B30002E5910100006D0C021D92030000C309C7
:1004C30002E3910100006E0C120125CF8B03120190
:1004D30025E68B03120125158C031201254E8C038F
:1004E300120125768C03120125A48C03120125BB6E
:1004F3008C03120125D28C03120125E88C0312010F
:10050300250F8D03120125228D03120125388D033A
:100513001201254B8D03120125708D03120125084D
:10052300F50112012507F6011201253CF60112011E
:10053300255DF6011201256DF6011201258EF601E6
:100543001201259AF70112012567F801120125DA34
:10055300F80112012560F901120125A3F901120125
:1005630025DAF90112012560FA0112012532FB0196
:1005730012012590FB01120125A8FB01120125227E
:10058300FC0112012525FC0112012528FC011201A1
:1005930025CFFC01120125E7FC0112012517FD01FE
:1005A30012012537FD0112012525FE01120125DB6C
:1005B300FE0112012585D902120125ADD9021201CE
:1005C30025DBD90212012512DA021201257ADA0299
:1005D300120125C3DA021201250EDB021201254C9A
:1005E300DB0212012589DB02120125B7DB021201AE
:1005F300255EDC0212012568DC0212012575DC028E
:10060300120125A8DC021201256ADD0212012576FA
:10061300DD021201258EDD0212012598DD02120191
:10062300254A970312012558970312012570970352
:100633001201258897031201257DB0011201251BA4
:10064300B10112012593B101120125A8B2011201D2
:1006530025E2B2011201258BB30112012560B40119
:10066300120125C4B5011201251BB601120125A2F1
:10067300B60112012589B701120125D6B70112016E
:100683002564B80112012588B8011201255DBA015C
:100693001201259EBA01120125C0BA01120125419A
:1006A300BB011201252BBC01120125F1BC01120172
:1006B3002564B80212012536B902120125DFB902F9
:1006C30012012522BA02120125AFBA021201253BFB
:1006D300BB021201251CBC021201254BBC021201F4
:1006E3002547BD021201258FBD0212012591BE02CD
:1006F300120125D5BE02120125FBBE02120125B44B
:10070300980312012527EF021201253DEF02120182
:100713002563EF021201258BF00212012595F002E9
:10072300120125EEF102120125EEF20212012580DB
:10073300CA02120125B5CB02120125E8CB02120130
:100743002532CC02120125F0CD021201252292019D
:10075300120125859201120125CA9301120125DA9E
:100763009301120125FD9301120125489401120101
:1007730025ED9401120125E39501120125AD9601A2
:1007830012012525980112012567980112012505FB
:10079300990112012552990112012578990112013B
:1007A30025669B011201256B9B011201254C9D01BE
:1007B300120125A09D01120125029E011201252A85
:1007C3009E01120125CE9E01120125909F01120167
:1007D30025C19F01120125C49F011201250CA0010F
:1007E3001201254EA001120125B5A00112012531E8
:1007F300FD0212012544FD021201255DFD021201D5
:1008030025A8FD0212012583FE0212012512FF0213
:100813001201255DFF021201258422001201259099
:100823002200120125C922001201250E2300120104
:1008330025C523001201254B2400120125B02400F5
:10084300120125DC2400120125152500120125299A
:100853002700120125052900120125F02A001201A3
:1008630025272C00120125872E00120125732F0046
:10087300120125B93000120125C63100120125E30A
:1008830031001201251B32001201253532001201FD
:10089300259D3200120125373700120125D8370074
:1008A3001201252938001201255038001201259E16
:1008B3003800120125BC380012012510390012013D
:1008C30025E93900120125703B00120125F83B0090
:1008D3001201252DDE0212012537DE021201250247
:1008E300DF021201251DDF0212012543DF0212017F
:1008F3002587DF02120125BFDF02120125E8DF028F
:1009030012012561E00212012576E0021201258B16
:10091300E002120125C2E002120125D6E002120113
:100923002507E10212012541E1021201256DE102D1
:10093300120125E4E1021201252DE20212012557DD
:10094300E2021201257CE2021201253BEB021201B5
:100953002505EC02120125E8EC021201255EED02E9
:10096300120125A0ED02120125CDEE021201250090
:100973008002120125298002120125428002120100
:1009830025878102120125658202120125848202D4
:10099300120125118302120125548302120125A19C
:1009A3008402120125408502120125BF870212012C
:1009B300255688021201252A89021201250C8A0272
:1009C300120125788B021201250B8C021201255F7F
:1009D3009303120125C893031201251C94031201EA
:1009E30025439403120125A4E20212012511E30217
:1009F3001201255CE30212012551E4021201254D87
:100A0300E50212012537E602120125A3A002120115
:100A130025E5A002120125BFA10212012598A20219
:100A230012012593A30212012572A402120125DEED
:100A3300A402120125A5A50212012510A602120186
:100A43002577A602120125A2A60212012513A702E9
:100A5300120125A6A7021201250FA80212012524BF
:100A6300A8021201256CA80212012585A802120111
:100A730025EAA802120125EDA80212012500800330
:100A83001201252880031201256680031201252403
:100A930081031201258F8103120125AB810312010A
:100AA30025D3810312012503820312012512820338
:100AB3001201258C8203120125B282031201257FC4
:100AC300A1011201251CA30112012502A501120196
:100AD30025CCA50112012513A6011201255AA60151
:100AE3001201256CA601120125ACA601120125DB1A
:100AF300A60112012527A7011201255FA7011201F3
:100B0300258DA701120125DEA7011201256DA8017C
:100B13001201255BAB0112012535AD0112012571CF
:100B2300AD01120125CBAE0112012512AF01120155
:100B33002587AF01120125D5AF01120125A0970228
:100B4300120125BD9702120125579D021201255955
:100B53009E02120125D39F0212012581A0021201D8
:100B6300253F5000120125885000120125B5500081
:100B7300120125E85000120125F55000120125014C
:100B83005100120125135100120125E851001201F1
:100B9300254652001201257B5200120125175400ED
:100BA300120125645400120125885400120125F511
:100BB30054001201259A55001201255656001201C0
:100BC30025D55600120125995700120125A8570073
:100BD300120125295800120125C85800120125FACF
:100BE3005800120125955900120125F359001201ED
:100BF300252D5A00120125AE5A00120125775B00FC
:100C0300120125205C00120125A75C00120125FFBB
:100C13005C00120125605D00120125895D0012014F
:100C2300253F5E00120125895F00120125CC5F007C
:100C3300120125E95F001201250860001201255306
:100C43006000120125786000120125A160001201E5
:100C53002510610012012552610012012556620020
:100C6300120125F06200120125BC6300120125D593
:100C73006300120125577600120125AA760012019E
:100C830025B676001201258B7700120125B2770075
:100C9300120125ED77001201255978001201258DE7
:100CA3007800120125C67800120125DE78001201B2
:100CB3002537790012012550790012012599790011
:100CC300120125AC7900120125C67900120125DC39
:100CD3007900120125F87A00120125097C0012011E
:100CE30025567D001201253B7E00120125F87F0069
:100CF30012012522E80112012556E801120125C13E
:100D0300EB011201250BED01120125D5ED011201B5
:100D1300255FEF011201253AF00112012574F0015C
:100D230012012597F001120125D9F001120125E2E4
:100D3300F0011201252CF10112012536F1011201F6
:100D430025E2F101120125B6F2011201250AF30190
:100D53001201256CF301120125BFF301120125EEE7
:100D6300F3011201252DF40112012507640012017C
:100D730025616C00120125676C00120125227200A7
:100D8300120125087600120125A9F6021201251F7A
:100D9300F70212012535F70212012572F70212013B
:100DA30025AAF70212012527F80212012562F8028B
:100DB300120125DDF80212012519F902120125227B
:100DC300F9021201252EF90212012548F902120136
:100DD300256DF90212012583F902120125C7F902D3
:100DE300120125C3D402120125D6D402120125F023
:100DF300D40212012519D5021201255CD502120174
:100E0300259BD502120125D9D5021201253ED60212
:100E130012012553D6021201255ED6021201256B5B
:100E2300D60212012582D60212012590D6021201A2
:100E3300259BD602120125A7D602120125BAD60296
:100E4300120125C5D602120125E8D6021201259109
:100E5300D702120125A1D702120125BBD702120125
:100E630025D8D702120125F4D70212012519D80279
:100E730012012523D80212012537D8021201255663
:100E8300D802120125B7D802120125BDD8021201DA
:100E930025C3D802120125C9D802120125D5D802CB
:100EA30012012508D902120125A9CD011201252B12
:100EB300CE01120125D4CE011201251CD00112014D
:100EC300252AD20112012510D30112012545D30190
:100ED30012012567D30112012510D401120125E067
:100EE300D50112012509D60112012581D60112016E
:100EF30025B3D601120125C0D6011201250BD70156
:100F03001201252FD70112012580D9011201258A4B
:100F1300DA01120125E6DA0112012526BF011201C9
:100F23002537C0011201251BC10112012525C1016D
:100F330012012547C10112012553C101120125F7F1
:100F4300C20112012524C3011201253AC401120171
:100F5300258FC401120125DEC501120125B3C60187
:100F63001201250FC7011201257AC701120125AF0E
:100F7300C701120125F2C701120125BCCA011201E2
:100F830025D4CA0112012565CB0112012573CB01BA
:100F9300120125C0CB01120125CECB011201253A46
:100FA300CC01120125B5CC011201250CCD01120192
:100FB30025828C02120125A48C02120125B58E0212
:100FC3001201257491021201259E92021201255CE1
:100FD3009302120125489402120125168A03120175
:100FE300253B8A03120125B18A0312012547B10269
:100FF30012012550B10212012559B1021201253106
:10100300B202120125E2B30212012512B402120147
:10101300253DB4021201256DB40212012598B402D4
:10102300120125CCB402120125F8B4021201253BAA
:10103300B50212012566B502120125ADB5021201F2
:101043002502B60212012544B6021201259EB602FC
:10105300120125C9B60212012518B702120125484B
:10106300B70212012573B702120125A1B7021201BB
:1010730025C4B7021201253D99031201256999037D
:10108300120125969903120125A09903120125B097
:101093009903120125FEC40212012508C50212019B
:1010A3002549C50212012592C502120125CCC502AC
:1010B30012012522C60212012543C6021201254C44
:1010C300C602120125A0C602120125C9C6021201D9
:1010D30025D3C60212012541C702120125D1C70239
:1010E3001201252CC8021201255AC802120125E259
:1010F300C80212012521C90212012556C902120193
:101103002568C90212012587C90212012590C90267
:1011130012012552CA0212012576950312012525D3
:1011230088031201255B88031201258F88031201AE
:1011330025DC890312012587FF021201259DFF0289
:10114300120125A7FF02120125BA9903120125F9FD
:10115300E6021201250CE702120125D0E702120173
:10116300250FE8021201252CE80212012565E80289
:10117300120125B2E802120125E4E8021201251B3F
:10118300E9021201252EEB021201256D96031201CD
:1011930025909603120125BF96031201250197039B
:1011A300120125FA82031201251F83031201254927
:1011B3008303120125199A031201255F3C001201D2
:1011C300253D3E00120125DC3F001201258740002A
:1011D3001201250741001201258C4100120125B59A
:1011E3004100120125904500120125074600120116
:1011F300251E470012012558470012012599470073
:10120300120125E048001201253649001201257F0D
:101213004900120125EE49001201255A4A00120124
:10122300258B4A00120125A34A00120125BC4B005D
:10123300120125CC4B00120125824D001201259984
:101243004D00120125CB4D001201256D4F001201F7
:101253002501500012012546FF0112012557FF0108
:101263001201250C9B031201254B9B03120125A0A0
:101273009B031201252198031201253198031201C2
:1012830025499803120125B198031201257494038B
:10129300120125F994031201255D9503120125B26C
:1012A3009003120125DB90031201254691031201DD
:1012B30025979103120125F291031201252C920324
:1012C300120125419203120125B59203120125CF84
:1012D3009203120125E29203120125F092031201F7
:1012E300250A93031201252A9303120125F8F2021A
:1012F3001201250FF30212012589F3021201256D54
:10130300F40212012544F602120125F7F902120133
:101313002533FA02120125E2FA0212012510FD0219
:1013230012012528FD021201251A8F031201256CD3
:101333008F03120125DF8F031201254C9003120145
:1013430025DE8503120125088603120125D78603AE
:10135300120125B3870312012511A902120125DD0C
:10136300A9021201251EAA0212012558AA0212017E
:1013730025B6AA021201250AAB0212012568AB02A7
:10138300120125FEAB0212012506AD0212012590C2
:10139300AE021201252EAF0212012595AF021201F2
:1013A30025A8AF021201259CB002120125E5B00267
:1013B30012012533DB0112012565DE01120125F639
:1013C300DF011201254DE0011201256AE00112013E
:1013D30025EAE00112012566E20112012535E30148
:1013E300120125A2E6011201258CE70112012582D3
:1013F3008D03120125FF8D031201250A8E031201AD
:101403002570BF0212012567C2021201250CC30217
:10141300120125B6C302120125EEC402120125A64C
:10142300CF02120125EBCF0212012508D0021201CF
:101433002526D102120125C3D102120125B4D202FD
:101443001201258AD402120125C29A03120125DB57
:101453009A03120125559B03120125829B03E06623
:10146300701008A3E066700A08A3E066700408A37E
:10147300E06622C3E7960809E7960809E796080994
:10148300E79622C3E09608A3E09608A3E09608A394
:10149300E09622C008C3E096F50808A3E096420848
:1014A30008A3E096420808A3E09645087001D3D04C
:1014B3000822080808EAC0E0EBC0E086F0E7A4FAD7
:1014C300180986F0E7A42AFA180986F0E7A42AFA8D
:1014D300180986F0E7A42AFA1986F0E7A4FBE5F0D9
:1014E3002AFA190886F0E7A42BFBE5F03AFA190863
:1014F30086F0E7A42BFBE5F03AFA18180986F0E723
:10150300A4C5F02BFBE43AFA1908E7C5F0C6A426F4
:10151300F6E5F03BFBE43AFA1886F0E7A4F6E5F0CB
:101523000826F6E43B08F6E43A08F6D0E0FBD0E000
:10153300FA22E4CFC0E0E4CEC0E0E4CDC0E0E4CCE6
:10154300C0E075F020C3E633F608E633F608E63369
:10155300F608E633F6181818EC33FCED33FDEE33DA
:10156300FEEF33FFC3EC9709ED9709EE9709EF9769
:10157300191919400FFFEC97FC09ED97FD09EE9738
:10158300FE191906D5F0BEECF709EDF709EEF709D8
:10159300EFF7191919D0E0FCD0E0FDD0E0FED0E060
:1015A300FF226016080808C6C313C618C613C61858
:1015B300C613C618C613C6D5E0EA22700908080880
:1015C300226016181818C6C333C608C633C608C621
:1015D30033C608C633C6D5E0EA22E627F60809E68D
:1015E30037F60809E637F60809E637F622E026F665
:1015F30008A3E036F608A3E036F608A3E036F622A1
:10160300E026F008A3E036F008A3E036F008A3E0F4
:1016130036F022C3E697F60809E697F60809E69737
:10162300F60809E697F622C3E096F008A3E096F0E1
:1016330008A3E096F008A3E096F022E056F608A38C
:10164300E056F608A3E056F608A3E056F622E05665
:10165300F008A3E056F008A3E056F008A3E056F024
:1016630022E0F608A3E0F608A3E0F608A3E0F622DA
:10167300E6F008A3E6F008A3E6F008A3E6F022E00C
:10168300FAA3E0FBA3E0FCA3E0FD22EAF0A3EBF066
:10169300A3ECF0A3EDF022CAC0E0E6F0A308DAFA67
:1016A300D0E0FA22CAC0E0E0A3C582CCC582C583DC
:1016B300CDC583F0A3C582CCC582C583CDC583DAEE
:1016C300E6D0E0CA22C3E498F8E499F91217098036
:1016D30026C3E49AFAE49BFBE920E7E9121709E43D
:1016E30098F8E499F922C3E498F8E499F9121709F0
:1016F300E498F8E499F9C3E49AFAE49BFB22EB201B
:10170300E7CFE920E7E0B90010BB0008E88AF084DE
:10171300F8AAF022E4FBC8FA22EB70227B10C8334C
:10172300C8C933C9335007C39AC3DBF280069A5042
:10173300012ADBEAC833F4C8C933F4C9FA2275F0C5
:1017430008E4C833C8C933C933C99AC99B5004C90B
:101753002AC93BD5F0ECFBC833F4C8E4C9FA2260CC
:101763000D08C6A2E713C618C613C6D5E0F3226058
:101773000C08C6C313C618C613C6D5E0F4227004FA
:1017830022600D18C6C333C608C633C6D5E0F418A5
:1017930022251810AF08F518400215198008F5180E
:1017A30040021519D2AF22C0D0251810AF08F51882
:1017B300500205198008F51850020519D2AFD0D090
:1017C300222518F58210AF08F51840021519800874
:1017D300F51840021519D2AF851983222518F58211
:1017E300E43519F58322E4732518C582C0E0E519B1
:1017F30034FFC583C0E0E518C3958224F810AF0811
:101803008583198582188008858319858218D2AF4C
:10181300CEF0A3E520F0A37808E608F0A3DEFAEF04
:10182300F0A3E58124FAF8E608F0A3E608F0A3E6BE
:1018330008F0A30808E608F0A3E608F0A31581154D
:1018430081D0E0FED0E0F8158115811581E8C0E074
:10185300EEC0E0222518C582C0E0E51934FFC58338
:10186300C0E0E518C3958224F910AF088583198574
:1018730082188008858319858218D2AFCEF0A3E53C
:1018830020F0A37808E608F0A3DEFAEFF0A3E581E1
:1018930024FBF8E608F0A3E608F0A30808E608F03E
:1018A300A3E608F0A315811581D0E0FED0E0F8157A
:1018B300811581E8C0E0EEC0E02285198385188296
:1018C300E0A3FEE0A3F5207808E0A3F608DFFAE042
:1018D300A3FFE0A3C0E0E0A3C0E0E0A3C0E0E0A377
:1018E300C0E0E0A3C0E010AF0885821885831980AB
:1018F30008858218858319D2AFD083D08202012252
:10190300851983851882E0A3FEE0A3F5207808E01B
:10191300A3F608DFFAE0A3FFE0A3C0E0E0A3C0E082
:10192300E0A3C0E0E0A3C0E010AF08858218858380
:10193300198008858218858319D2AFD083D082227B
:10194300C0D02518C582C0E0E51934FFC583C0E0C7
:10195300E518C3958224F310AF088583198582188F
:101963008008858319858218D2AFC8F0A3E9F0A354
:10197300EAF0A3EBF0A37908E709F0A3D8FAECF0B7
:10198300A3EDF0A3EEF0A3EFF0A3D0E0F0A3D0E03B
:10199300F0A3D0E0F0A3E520F0A3E5F0F0A32285C7
:1019A3001983851882E0C0E0A3E0F9A3E0FAA3E07D
:1019B300FBA37808E0F608A3DFFAE0FCA3E0FDA3AD
:1019C300E0FEA3E0FFA3E0C0E0A3E0C0E0A3E0F5F6
:1019D300D0A3E0F520A3E0A3F5F010AF08858319A9
:1019E3008582188008858319858218D2AFD082D06A
:1019F30083D0E0F8D0E0327404800674028002746D
:101A030001C0E0F4041217C4D0E012169A22740441
:101A1300800474028000CCC0E0EDC0E0E518C39CF4
:101A2300CCAD1950011D10AF068C188D1980068C92
:101A3300188D19D2AF1216A7D0E0FDD0E0FC22D04A
:101A430083D082E9C0E0E493A3C386F0C5F095F0A8
:101A5300F908E493A386F0C5F095F0700BE493A323
:101A6300C3994005E9048002A3E475F002A425822A
:101A7300F582E5F03583F583D0E0F9E493A3C0E084
:101A8300E493C0E022D083D082ECC0E0EDC0E0E478
:101A930093A3FCE493A3FDED4C600D121AD4EC2444
:101AA300FFFCED34FFFD80EFE493A3FCE493A3FD7F
:101AB300ED4C600D121B13EC24FFFCED34FFFD8095
:101AC300EFD0E0FDD0E0FCE493A3C0E0E493C0E0FA
:101AD30022C0E0C3E49396087401939618400FE480
:101AE3009366700808740193661870007019A3A3B5
:101AF300C3E49396087401939618A3A3400DD0E012
:101B0300D0E0D0E0021AC4A3A3A3A3A3A3D0E022EE
:101B1300C0E0C0F088F0E49366700808740193662F
:101B2300187000A8F0A3A3700BD0F0D0E0D0E0D0E1
:0B1B3300E0021AC4A3A3D0F0D0E0220F
:101B400074F5121857EAFEEBFFEE2434F8EF340078
:101B5000F988088909EE2435121C78F8EE2437122A
:101B60001C78F50AEC850AF0A4FCAAF0850AF0EDD1
:101B7000A42AFDE82CF8E43DF97A257B0012170928
:101B8000EA850882850983F05407F87401B80002D9
:101B90008004C333D8FCC0E0E0131313541FF8EEE5
:101BA00028F8EF3400F9E8245DF582E93400F58384
:101BB000D0E0F8E0586008850882850983801DEE32
:101BC0002436121C78F5F0EA84A8F0EE28F8EF34F9
:101BD00000F9E82438F582E93400F583E0F97F0460
:101BE00002190374F5121857EAFEEBFFEE243412C3
:101BF0001C78C0E0EE2435F582EF3400F583D0E0A8
:101C0000F08E828F83A3A3A3A3A3E0FAA3E0FB8EAD
:101C1000828F83A3A3A3A3A3A3A3E0FCA3E0FDEC73
:101C2000C39AF50AED9BF50BEE2480F508EF34001E
:101C3000F509850882F583E06401702BEE2481F5B7
:101C400082EF3400F583121A15121C8174021217E8
:101C5000AAE960137CFD7D04EEFAEFFB120C1B85F4
:101C60000882850983E4F0AC0AAD0BEEFAEFFB12B3
:101C70001B401221D4021BDEF582EF3400F583E015
:101C800022C082C083851882851983E0F8A3E0F919
:101C9000C3EA9CEB9D5012C3EC98ED994019C3EA3E
:101CA00098EB99501279018010C3EA98EB9940F5AE
:101CB000C3EC98ED9950EE7900D083D08222EAC32C
:101CC0009CFAEB9DFB2200008521878522C622C05D
:101CD000E074EF121943759B00906182E0A2E64028
:101CE00003021D90E591A2E64003021D907591BF8D
:101CF0009003C2E064057008120DB9120DC580038F
:101D0000120DBF752100120E2BE99003C3F079006C
:101D1000120E1F120B857A017B009003C1E0F912AD
:101D200010EF907803E064426003021DD990055FD4
:101D3000E014F06003021DD9C2AF121D3D00782AE5
:101D4000D0E0F618D0E0F6E59F5407F970059091C1
:101D50009D80039091A17808121664E9C4C0E078D0
:101D600029E65508F50808E65509F509740B7808C1
:101D7000121772D0E02508F8906270E0A2E740F8F0
:101D8000E8C333906272F0906270E0D2E0F0804974
:101D9000E0A2E55024E591A2E5501E7591DF900385
:101DA000C2E0640D70139003E4E004F06428700254
:101DB000E4F07A00E0F9120E9D906181E0A2E35018
:101DC00009E5E9A2E3500375E9F7A3E0A2E75009AA
:101DD000E591A2E7500375917F7F040219A2C0E04C
:101DE000C0D0C082C083906183E0A2E05009E5BF0B
:101DF000A2E0500375BFFEE0A2E15009E5BFA2E1F9
:101E0000500375BFFDE0A2E25009E5BFA2E2500316
:101E100075BFFBE0A2E35009E5BFA2E3500375BF25
:101E2000F7E0A2E45009E5BFA2E4500375BFEFE07C
:101E3000A2E55009E5BFA2E5500375BFDFE0A2E6C9
:101E40005009E5BFA2E6500375BFBFD083D082D052
:101E5000D0D0E032C0E074F2121943E5A7A2E450FA
:101E60000FE5A1A2E4500953A7EF75A1EF121EA838
:101E7000E5A7A2E5500CE5A1A2E5500653A7DF7542
:101E8000A1DFE5A7A2E15009E5A1A2E1500375A1F8
:101E9000FDE5A7A2E2500CE5A1A2E2500653A7FB84
:101EA00075A1FB7F010219A274F812185775210160
:101EB0009003C2E0640670077A007B00120DA1A2B5
:101EC000AFE433FED2AF9003C8E0640170187A200B
:101ED0007B009003C1E0F91211737A207B0090031C
:101EE000C1E0F91210F5906182E0D2E6F090055E53
:101EF000E0602185C62280169003C7E06401700867
:101F0000E5C654F84405F5C653BEFC121CC874015E
:101F1000652160E4EEA2E092AF7F010219030000A8
:101F20008E238F24858228858327851882851983AF
:101F3000E0CEA3E0CF852882852783EBC9EAC8EDF0
:101F4000CBECCA75F010C3E833C8E933C9EA33CA29
:101F5000EB33CBC3EA9EF526EB9FF525B35004ABDC
:101F600025AA26EC33CCED33CDD5F0DAAE23AF2461
:101F70002274F11218578A088B098C0A8D0B740F82
:101F80001217DF780C121664909185780812163EAD
:101F9000909185780C12163E7808790C12147650C0
:101FA000157808790C1216169091C57808121496B7
:101FB000401579018013780C79081216169091C596
:101FC000780C12149640EB79007F0802190374ED27
:101FD0001218578A088B098C0A8D0B74131217DF9D
:101FE000780C121664909185780812163E909185AF
:101FF000780C12163E780C79081214764011780885
:10200000790C121616AA08AB09AC0AAD0B80227522
:1020100010007511007512007513017810790C12FB
:102020001616781079081215DDAA10AB11AC12AD96
:10203000137F0C02190390918578081216648A8226
:102040008B8378081216517F0402190374F5121855
:10205000578C828D8378081216648A828B83780865
:1020600012162A1220A0C3E098F0A3E09912209241
:10207000401E90918178081216648A828B837808BA
:102080001216038E828F83E02420F0A3E0344EF0FA
:1020900080A4F08E828F83C3E09420A3E0944E222C
:1020A000EA2404F8EB3400F9E8FEE9FF8C828D8322
:1020B000A3A3A3A3E0F8A3E0F98E828F832274F593
:1020C000121857E9FE900514E0FAA3E0FBEEC333C3
:1020D000F8E433F974CE28F582748F39F583E02A59
:1020E000F508A3E03BF50978081219FE9091AD12AE
:1020F0001682121F2074021217AA8A088B098C0AF2
:102100008D0B741078081215A5AA08AB097F04027C
:10211000190374F11218578A0C8B0D8C0E8D0F74E5
:102120000F1217DFE0FAA3E0FB74111217DFE0F5DE
:1021300008A3E0F50974131217DFE0FEA3E0FF78AF
:10214000081219FEEA2401F508EB3400F509E4F55C
:102150000AF50B780C79081214B59091C178081221
:102160001664780C79081214B5AA0CAB0DAC0EAD40
:102170000F121F2074021217AA8B09EA4509600486
:102180007A0180027A00EC2AFCED3400FDECF8EDD7
:10219000F97A717B0212170988088909E4F50AF5B2
:1021A0000B8E828F837808121673ECF8EDF97A7132
:1021B0007B021217098A088B0974057808121781A7
:1021C0008E828F83A3A3A3A3E508F0A3E509F07F84
:1021D00008021903C082C083E9906000F0D083D068
:1021E0008222C0E074F2121943A2AFE433FED2AFF0
:1021F000E589A2E150031212B7758900C2C5EEA2AB
:10220000E092AF7F010219A2C0E074F2121943A25A
:10221000AFE433FED2AFE58BA2E050031212B775E4
:102220008B00C2E880D8C0E0C0D0E8C0E0E5A8D20A
:10223000AFC2C7A2E792AFD0E0F8D0D0D0E032C0B2
:10224000E074F2121943C2AF90098DE004F06432D9
:102250007023E4F0900BADE0900BAC700BE0C394F6
:1022600064500FE024048009E0C394034004E02498
:10227000FCF01213FBD2AF7F010219A2FFFFFFFF98
:10228000FFFFFFFFC082C083E9900A8DF00225089E
:1022900074F71217EBE99002E0F07C187D037AFFE7
:1022A0007BFF1208A99002E174FFF0A3F0A3E4F011
:1022B000A3F079051208319002E0E0F91207597A8B
:1022C000C77B08120A8302321674F41217EB8A08CD
:1022D0008B09EB548060309002E0E0F91210D78A4D
:1022E0000A8B0BAE0AAF0BEE4F60138E828F83E02A
:1022F00064B07003120849EEFAEFFB1210C5AA0889
:10230000E5096480FB80047A007B000224D774F224
:102310001217EB74FC121794EAFEEBFF74121217FB
:10232000DF1236FDEE4F70030223B174021217DF85
:10233000EEF0A3EF122712ECF0A3ED122712AA82FF
:10234000AB83120753E9F50A706AE5084509606432
:102350008E828F831236E3EE4F60567A067B001230
:10236000112B8A0C8B0DA80CA90DE8497005750A74
:1023700013804188828983E41223BEEEF0A3EF121A
:10238000370EE508F0A3E509F09002E61224459027
:1023900002E670051231C0801B1231AE8003EAFCE8
:1023A000EBFD8C828D8312244570F38C828D8380AB
:1023B000E3750A02A90A74041217AA0238FDF0A3F1
:1023C0001236B4A32274F21217EB890AE975F017DA
:1023D000A4FEAFF09002E5E4F09002E31224456021
:1023E0000A1211319002E3E4F0A3F0EEFAEFFB12CF
:1023F000112B8A088B09EA4509602FEEFCEFFD7965
:10240000001210B39002E3E508F0A3E509F07B00A9
:10241000800812242FE4F0A3F00BEBC3950A40F2DE
:10242000E50A9002E5F07900800279130238FDEBAD
:1024300075F017A4F8A9F09002E3E028FAA3E039B8
:102440008A82F58322122E52EA4B2274F41217EB81
:10245000740C1217DF1236D8FEE9FF7508007509F3
:1024600000800CE5082401F508E5093400F509C3EE
:10247000E5089CE5099D503285080A85090B74031F
:10248000780A121781EA250AF8EB350BF988828958
:1024900083A3A3A3A3A3A3123295EE650A7003EF4F
:1024A000650B70BFE8FAE9FB80047A007B008027A7
:1024B00074F41217EB7900EAA2E0501B750830752E
:1024C000099178081219FE7C047D007A8F7B0A122C
:1024D000082B74021217AA7F040218BDC082C083A1
:1024E0009002E612250F601C88828983A3A3E06A0C
:1024F0007003A3E06B8882898370E8A3A3A3A3126F
:102500002E4E80047A007B00D083D08202012212FA
:1025100039E3E8492274EE1217EB74FC121794EABF
:10252000FEEBFF851882851983E4F0A3F0EE240208
:102530001231A0EE24051236BBEE2404F50EEF1284
:102540002AC7E024FE603924FC604624FE60522441
:10255000FE605E24FE700302262824FE700302261D
:102560008C24FE700302269B24FE70030226AA24FC
:10257000FC70030226B924FE70030226C802270558
:102580009002FF7417F0A3E412271A1204D1022755
:1025900005851882851983AC82AD8312084F022607
:1025A000D5851882851983AC82AD83120855022621
:1025B000D5850C08850D0974021217DFAC82AD8336
:1025C000850882850983122E4E1207778A0C8B0D9F
:1025D000AC0CAD0DEC4D603BE4F50CF50D780C1238
:1025E00019FE750CFF750D02780C1219FE750C00A2
:1025F000750D03780C1219FE74081217DF121A15E4
:10260000123B5F1217AAE9F50C700B122E4412044C
:10261000E9800F750C01850882850983122708124D
:1026200031C0850C080226D874021217DFAC82ADC7
:1026300083850C82850D83122C19603C850C828564
:102640000D83A3A3121A157510FF751102781012CD
:1026500019FE75100075110378101219FE74081216
:1026600017DF121A15123B5F1217AAE9F509700B52
:10267000122E441204EF800F750901850C82850D1E
:10268000831227081231C0850908804C851882857D
:102690001983AC82AD8312085B803A851882851954
:1026A00083AC82AD83120861802B851882851983E3
:1026B000AC82AD83120867801C851882851983ACB3
:1026C00082AD8312086D800D851882851983AC82D6
:1026D000AD83120873E9F508E50860298E828F83BF
:1026E000A3E06414601F850E82850F83E09002FFD3
:1026F0001227121239DF9003001231C0E508A3122D
:10270000271A1204CB0230AF1239E38518828519DB
:102710008322F085188285198322F07CFF7D028553
:102720000A82850B83122E522274EE1217EB74FC70
:102730001217948A0A8B0B8C0E8D0FEA2405F5086C
:10274000EB3400F5097C157D0079007AFF7B0212DD
:1027500010B3E5082402F50CE5091236BE8518828F
:1027600085198385821085831178101219FE8508DA
:1027700082850983A3A3A3A3122C101219FEE508D6
:102780002405F510E5093400F51178101219FE85BD
:102790000C82850D83122F6512077174061217AA19
:1027A0008A108B11AE10AF11E50A2402F50AE50B71
:1027B0001231A3EE4F70030228E78017740212173C
:1027C000DF122E4E88828983EAF0A3EBF09002FF9D
:1027D000E004F09002FFE0C3940540030228E7E420
:1027E000F510F51178101219FE7510E875110278C0
:1027F000101219FE7510E975110278101219FE7485
:10280000061217DF121A157910EEFCEFFD123B616C
:102810001217AAE9705E850882850983A3A3A3A382
:10282000A3A3A3E0F89002E8E0687048122C10120D
:1028300019FE7CE97D02E5082408FAE5093400FB6D
:102840001210AD74021217AAE960298E828F83A339
:10285000A3A3A3122E4E9002FFE0F510740278108D
:1028600012178174002510F58274033511F583EA7F
:10287000F0A3EBF074021217DF85821085831178C4
:10288000101219FE74021217DF121A15850C8285B8
:102890000D83122E741217AA8A108B11AE10AF116D
:1028A0009002FFE0F5107511007402781012178184
:1028B00074FF2510F874023511F988828983A312F8
:1028C000244570030227B3E82403080808E934000C
:1028D000F9EE4F60030227BC8882898374FFF0A35E
:1028E000F09002FFE004F09002FFE0600A122E4434
:1028F0001204DD7900800B8508828509831231B7C7
:10290000790A0230AF74EA1217EB74FE1217948C36
:10291000128D13EA2405F50CEB123B491236E775CC
:102920000800750900EA2402F510EB3400F5118562
:10293000188285198385820A85830B780A1219FE0D
:10294000850C82850D83A3A3A3A3122ADD1219FE91
:10295000E50C2405F50AE50D1231A3780A1219FEDB
:10296000850C82850D83122AE112077174061217F5
:10297000AA8A0A8B0BEA450B7003022A82EA240416
:10298000F50EEB122AC71236E78A828B83A3A3A324
:10299000E0F9851082851183122E586003022A8285
:1029A000E4F514F51578141219FE7514E87515027E
:1029B00078141219FE7514E975150278141219FEAF
:1029C00074061217DF121A157913AC0AAD0B8510B5
:1029D00082851183123B671217AAE9F50960030289
:1029E0002A829002E8E0F8E5087009E024029003EA
:1029F00000F08014900300E0FCE82402FAE43400C4
:102A0000FBEA6C7001EB707E850882AA82122C07AB
:102A10009414122BFF506B850E82850F83E0C0E06B
:102A200074012A122ABED0E0F00508850E82850FB7
:102A300083A3E0C0E085080A7401250A122ABED0EB
:102A4000E0F005089002E8122ADD1219FE7CE97D0B
:102A50000285080A7401250A122AD11217AA9002C7
:102A6000E8E02508F50874FF6E700374FF6F6012CC
:102A7000EE24010EEF3400FFE508C3941450030266
:102A8000292FE5086013122E6285108285118312AA
:102A90002E4E1204E379008014E509700375090ACB
:102AA000851282851383EEF0A3EFF0A90974021258
:102AB00017AA7F0E0218BD85080C7401250CF5823B
:102AC00074033400F583223400F50F850E82F583FC
:102AD00022FA74033400FB12109B74022212371D79
:102AE00022A3A3122AE7221231AEFDEEFAEFFB2257
:102AF00074EE1217EB74FE1217948C0E8D0FEA24ED
:102B000005F50CEB1236BE750B009002FFE4F0F5F4
:102B10000AEA2402F508EB3400F50980449002FF2C
:102B2000E0FA9002E8E0F8122C079417122BFF400D
:102B30000D9002FFE0F87416C3989002E8F0122C92
:102B4000101219FE7CE97D0274002AFA7403122A1D
:102B5000D41217AA9002E8E0F89002FFE028F005EE
:102B60000AE50C2416F582E50D122AC2E0F8E50A02
:102B7000C39850749002FFE0C39416506BE50AC3EB
:102B800033F8E433F9E50C28FEE50D39FF851882AA
:102B9000851983AC82AD838E828F83122C197008C5
:102BA000750B011231B38050E4F510F51178101255
:102BB00019FE7510E875110278101219FE7510E9EA
:102BC00075110278101219FE74061217DF121A1509
:102BD0007916850882850983123B671217AAE9F5E1
:102BE0000B7003022B1D80BB7CFF7D028508828554
:102BF0000983122E4E1204F5A90B74020230B1E9BA
:102C00009400C365D03322EA28F8E43400F9E822BE
:102C1000E0F5107511007810221230A68A108B1181
:102C2000AC10AD11EC4D2274EA1217EB74FC1217C4
:102C3000948A0C8B0D8C128D13EA2405F50AEB1285
:102C400031A3750800750900E50A2402F510E50BAB
:102C50003400F51174021217DF85820E85830F7818
:102C60000E1219FE850A82850B83A3A3A3A3123635
:102C7000C31219FEE50A2405F50EE50B3400F50F25
:102C8000780E1219FE8510828511831231A9122E39
:102C90004812077174061217AA8A0E8B0FAE0EAF78
:102CA0000FE50C2402F50EE50D3400F50F80388891
:102CB00082898374FFF00508122AB774FFF00508B3
:102CC0009002E8E0F50C750D00780C1219FE7CE915
:102CD0007D0285080C7401250C122AD11217AA90C6
:102CE00002E8E02508F508EE4F60278E828F83A367
:102CF000A3A3E0F9850E82850F83122E58EE2404DB
:102D00001236BBE96027850C82850D83122E3A129C
:102D100031C0E5087003022E20122E62850E8285D6
:102D20000F83122E4E1204FB7900022E35E4F514A7
:102D3000F51578141219FE7514E875150278141239
:102D400019FE7514E975150278141219FE7408122B
:102D500017DF121A157911EEFCEFFD850E82850F33
:102D600083123B671217AAE9F509709A850882AAAF
:102D700082EA9002E87009E02404900300F08025C4
:102D8000E0F8900300E0F514E82404FCE43400FDCE
:102D9000EC65147001ED7081122C079412122BFF58
:102DA0004003022D19850C82850D83E0C0E074017B
:102DB0002A122ABED0E0F00508850C82850D83A377
:102DC000E0C0E0122AB7D0E0122E7D85820C858308
:102DD0000D780C1219FE74041217DF121A158510E3
:102DE00082851183122E741217AA8A0C8B0DAE0CD9
:102DF000AF0D85080C7401250CF874033400F9EE4E
:102E00004F7003022CAF851882851983E088828970
:102E100083122E7DA3E0C0E0122AB7D0E0022CBDC1
:102E2000E509700375090A850A82850B83122E3A1B
:102E30001231C0A9097404022AAF1239E385128243
:102E4000851383227CFF7D02850A82850B83122EE7
:102E50005222E0FAA3E0FB22122E5212075FE9F59C
:102E60000922900300E0F5F0E508849002FFF07C71
:102E7000FF7D0222122AE712077D740422F0050862
:102E80008518828519832274EC1217EB74FE1217D1
:102E9000948A088B098C0E8D0FEA2405FEEB340012
:102EA000FF123090EE24181236BBEA450B70030275
:102EB0002F331230795029122F588A108B11EA457E
:102EC00011606B7912AC0AAD0B85088285098312FB
:102ED0002E4E8510828511831217E9E9F50A705884
:102EE000E4F50AF50B780A1219FE8E828F83A3A3EC
:102EF000E0F50A780A1219FEEE24031231A0780ACE
:102F00001219FE8E828F83122F6512089774061293
:102F100017AAE9F50A7021850C82850D83E0701FE0
:102F2000850882850983122E4E1205018011750ACB
:102F30000E8009750A018004E50A60031231B38529
:102F40000C82850D83E0600479008002A90A740276
:102F50001217AA7F0C0218BD851882851983122EBC
:102F600052120885221231AEFD850882850983122E
:102F70002E522274EE1217EB74FE1217948A088BED
:102F8000098C0C8D0DEA2405FEEB3400FF750E0054
:102F9000123090EA450B7003023057123079502CF2
:102FA000122F588A0E8B0FEA450F604A7912AC0A2D
:102FB000AD0B850882850983122E4E850E82850F02
:102FC000831217E9E9F50E600302305A85088285FD
:102FD0000983123295AA0AFB12306B70147AFF7BB8
:102FE000FF12306B606C88828983E50AF0A3E50BE1
:102FF000F0750A008007750E0E805F050A9002E5E5
:10300000E0FAE50AC39A504AE50A75F017A4FAAB4C
:10301000F088828983A3A3E02AFAA3E03BFB8A829B
:103020008B831231A9EC4D70D2750A17750B00789D
:103030000A1219FEEEFCEFFD12109B74021217AA81
:10304000EEFCEFFD850882850983122E4E120507DE
:103050008014750E098003750E011239DB850C8210
:10306000850D831231C0A90E022BFA1208798A103D
:103070008B11A810A911E84922E5082402F508E5FA
:10308000093400F5098A828B83A3A3A3E0A2E52279
:10309000851882851983AC82AD838E828F8312302E
:1030A000A68A0A8B0B22E0FAA3E0FB1207772274B0
:1030B000041217AA7F0A0218BD74EC1217EB8C10C9
:1030C0008D11EA2405F50CEB1236BE750F00EA24CB
:1030D00002F50AEB1231A3850A82F583122E4E12F5
:1030E0003BED7003023195750E008071850C828571
:1030F0000D83E06401704F8E828F83A3A3121A1593
:103100008E828F83A3A3A3A3E0F512751300781218
:103110001219FEEE2405F512EF3400F513781212A1
:1031200019FE122E4812089774061217AAE9F50F15
:103130006014850C82850D83E4F01239DB851082E2
:103140008511831231C07C177D007900EEFAEFFB08
:103150001210B38E828F83E4F0A3F0050E9002E587
:10316000E0F8E50EC398501EE50E75F017A4F8A917
:10317000F0850882850983A3A3123B531231A9EC81
:103180004D60030230EC85088285098374FFF0A34B
:10319000F0E50F7006122E4812050DA90F022F53ED
:1031A000F50AEF3400F50B22A31231AEFD22E0FC4C
:1031B000A3E0228E828F831239E3850E82850F83EE
:1031C000E8F0A3E9F022C082C0839002E1E06A70D7
:1031D00003A3E06B70067AE17B0280047A007B0037
:1031E00002250874F71217EB7F00EF75F003A4F8BF
:1031F000A9F0EC28F8ED39F988828983E06A700338
:10320000A3E06B7006E8FAE9FB800B0FEFC39402B2
:1032100040D87A007B007F010218BD74F61217EBCC
:103220001237CC70067A007B008007A3A3A3A312F9
:103230002E4E02388D74F21217EBE9FE740E12173F
:10324000DF12329574101217DF1236FD8C828D83D7
:10325000E06402703BA31239DF88828983E0F50CB9
:10326000A3E0F9A80C7402687003742969702175D1
:103270000C02750D00780C1219FE78081219FE78F0
:103280000A1219FEEEF91208BB74061217AA800280
:1032900079010238FDE0F50AA3E0F50B2274E8128B
:1032A00017EB74FB121794E9851882851983F08A4D
:1032B000168B178C0E8D0F741F1217DF1236FD74CC
:1032C000211217DF12329574231217DF1236E775B9
:1032D00010008C828D83A3A3A3E0A2E4502A741D66
:1032E0001217DF122F5E8A828B83E582458370037B
:1032F0000233A9790AAC0EAD0FAA16AB171217E963
:10330000E9F51060030233AC850E82850F83E0641B
:10331000026003023662A31239DF850882850983C1
:10332000A3858212858313E50E2406F50CE50F12A2
:1033300036BE88828983E0FAA3E0F9EA2400F51416
:10334000E439F5157814121A880100002801287153
:10335000330700022848340328B8330029723501A6
:10336000299A350229413503297235042903366229
:1033700036EE4F703E850C82850D831236D8FAE901
:10338000FB8A828B83E0850A82850B8312371412B5
:1033900019FE8A828B83A31231AEFDAA08AB0912F3
:1033A000109B74021217AA800375100EA9107405E1
:1033B000023B4175100B80F4EE4F70F7850A828551
:1033C0000B837401F01236ED850882850983F07C49
:1033D000007D00850E82850F83A3A3A3A3E02401B3
:1033E000FAA3E03400FB120777EA4B60418A828B34
:1033F00083E02402F8850A82850B83E028F0EA2422
:1034000004F8EB3400F988828983E0851282851301
:10341000831237261237141219FE8A828B831231D7
:10342000A8E5082403FAE5093400FB02339F850A66
:1034300082850B83E02404F07C047D007900AA12CD
:10344000AB131210B30233ACEE4F60030233B3126E
:1034500036EDFEA3E0FF850A82850B837404F0EE4F
:10346000850882850983F0EF851282851383F074C5
:10347000031217DFAC82AD83EEFAEFFB1237BA709E
:103480000302351E8A828B83A3A31236E3740112D2
:1034900017DF85820E85830F780E1219FE740512D0
:1034A00017DF121A157CFF7DFF12077D74041217B7
:1034B000AA8B0FEA450F7033850C82850D83123677
:1034C000C31219FE850C82850D83A3121A157C0286
:1034D0007D007AE77B911205A974041217AAE9709E
:1034E0000A74011217DF74FFF0A3F08E828F83E05D
:1034F00064027034750C02750D00780C1219FE8E82
:10350000828F831231A8E5082404FAE509122AD42F
:103510001217AA850A82850B83E0240280097401B0
:103520001217DFEEF0A3EFF074011217DF1236D49A
:10353000F074011217DFA31236CCA3A3A3F0023359
:10354000ACEE4F60030233B3850C82850D831231DC
:10355000A9AA16AB171208AF850A82850B837402DD
:10356000F0EA850882850983F0851282851383EB52
:1035700080CBEE4F60030233B31236EDF8A3E0F9CF
:10358000850A82850B837402F0E8850882850983A9
:10359000F0E985128285138380A3850C82850D83D3
:1035A000122E4E121095EAFC8C82A882C39EE49FD4
:1035B000404BE86E7001EF70047C00801F8518821C
:1035C000851983E0FAEE2AFAEF3400FBC3EA98EBA0
:1035D00094005003E08004EECCC39CFCEC850A828E
:1035E000850B83F08C0A750B00780A1219FE850C86
:1035F00082850D83E02EFCA3E03F02339A7510070D
:103600000233ACEE4F60030233B3850C82850D8329
:103610001239DF850A82850B837407F088828983DB
:103620001236CC1236B4E0851282851383F0E8247A
:1036300002FAE93400FB8A828B831236CC123705FA
:103640001236D4A312370E1236DDF0E82405F8E95D
:103650003400F9888289831236DDA3123726A3024B
:10366000353A741D1217DF1237C570030233A912E1
:1036700039DF880C890DE8450D70030233A98E10DF
:103680008F1178101219FE780A1219FE7808121993
:10369000FE74061217DFE0F9AC0EAD0FAA16AB17D9
:1036A000850C82850D831217E974061217AAE9F5B5
:1036B000100233ACF088828983A322F50CEF34002A
:1036C000F50D22E0F50E750F00780E22E0850882D8
:1036D0008509832212372D221239E3E82212372D71
:1036E000A3A322A3A3A3A3E0FEA3E0FF22850C8251
:1036F000850D83E0F8A3E0F5838882E022E0F508F9
:10370000A3E0F50922A3A3F08A828B83A3221223CC
:10371000C0A3A322F08A828B8312371D22E0F50A10
:10372000750B00780A221236B412372D22E0850874
:1037300082850983A3A32274EE1217EB74FE12177D
:10374000948A0A8B0BECFAEDFB74141217DFE0F588
:1037500010A3E0F51174161217DFE0FE74181217AB
:10376000DFE0F50EA3E0F50F851882851983AC82A2
:10377000AD831237BA603E8518828519831237C52A
:10378000602FA3A31236FDE50845096024780E12C8
:1037900019FE78101219FEEEF9AC0CAD0DAA0AABA9
:1037A0000B8508828509831217E974041217AA8011
:1037B00006790E80027901022BFA1207778A0C8BA8
:1037C0000DEA450D22122E521237CC221208438ADE
:1037D000828B83E58245832274F61217EB74FE1206
:1037E0001794740C1217DF1236D885188285198346
:1037F000F074011217DFE9F0E4F508F50978081212
:1038000019FE75080278081219FE74041217DF8574
:10381000820885830978081219FE12089774061227
:1038200017AA74021217AA806474F71217EBEAFE43
:10383000EBFF89087C187D031208AFEA5402600B85
:10384000A908EEFAEFFB12076B800279010232162B
:1038500074F61217EB74FF6A700374FF6B701C7BB5
:1038600000EB75F003A4F8A9F0EC28F8ED39F91293
:1038700038920BEBC39402501480E612087F8A083A
:103880008B09A808A909E84960031238927F02024F
:1038900018BD8882898374FF1223BEE4F02274F677
:1038A0001217EB12087F8A828B83E58245836006BC
:1038B000A3A3E0FA80027A007B0080D174F2121791
:1038C000EB8A088B09ECFEEDFF740E1217DFE0F5B2
:1038D0000A123902701CEEFCEFFD7AFF7BFF1239F1
:1038E0000270047911801688828983E508F0A3E5C7
:1038F00009F088828983A3A3E50AF079007F060294
:1039000018BD12087F8A0C8B0DA80CA90DE849225E
:1039100074EE1217EBEAFEEBFF8C088D09890C742C
:10392000121217DF1239DF74141217DF1231A97463
:10393000161217DF122E4E750D00EC4D6003023982
:10394000D37402650C60030239CE888289831231F8
:10395000AEF9EC2400F50EE439F50FEAF4F8EBF4D7
:10396000F9EC58F8E50F59F9E849705DE5082406C7
:10397000F8E5093400F9880A890B8882F583122A50
:10398000E31208AF8A108B11E50E65107004E50F85
:1039900065116042780E1219FE850A82850B83122A
:1039A0002AE31208B574021217AAE9F50D702778F8
:1039B0000E1219FE850882850983A3A3122AE1123B
:1039C00008CD74021217AA800D750D808008750D40
:1039D0000D8003750D0BA90D0230B48E828F8312FA
:1039E00039E322E0F8A3E0F92274E81217EB74E758
:1039F000121794851882851983EAF0A3EBF08C16D0
:103A00008D17890E74311217DFE0F512A3E0F5135C
:103A100074331217DFE0F514A3E0F51574351217AF
:103A2000DFE0F50F750800750900E50975F003A4DE
:103A3000F8A9F0851882851983123B53E0F47003CE
:103A4000A3E0F47003023B31EE2402F50CEF123BCD
:103A500049E07003023B3185160A85170B780A127C
:103A600019FEAC14AD15AA12AB131208377402126A
:103A700017AA8A0A8B0BEA450B7003023B31E4F567
:103A800010F51178101219FE74061217DF858210D6
:103A900085831178101219FE74091217DF858210C0
:103AA00085831178101219FE851282851383A3A3D2
:103AB000A3A3121A157914AC0AAD0B8E828F831250
:103AC0003B671217AAE97069850A82850B83A3A355
:103AD000A3A31239DF74021217DF1231C0850C82E2
:103AE000850D83E0A2E05018A90E74021217DFAC16
:103AF00082AD838E828F83122E4E12078FE9420889
:103B0000850C82850D83E0A2E15026E50FF50A7849
:103B10000A121A02A90E74031217DFAC82AD838E4B
:103B2000828F83122E4E12078974011217AAE9425E
:103B3000080509E509C394025003023A2AA908744A
:103B4000191217AA7F100218BD3400F50D850C82DA
:103B5000F58322E028FEA3E039FF8E828F8322794D
:103B600016850A82850B83122E5212089174082240
:103B700074F21217EBEAFEEBFF890B7401650B6020
:103B80000E7402650B70637901120AA1E9705BEE95
:103B9000FAEFFB123BED6047750A00800B7C177D46
:103BA0000079001210B3050A9002E5E0F8E50AC3B7
:103BB000985021E50A75F017A4F8A9F085088285C8
:103BC0000983A3A3E028FAA3E039FB8A828B83123E
:103BD000250F70C985088285098374FFF0A3F07CE6
:103BE000187D03EEFAEFFB1208A90238FD120879DE
:103BF0008A088B09EA45092274F21217EB8A088BAE
:103C000009ECFEEDFF740E1217DF123295900A8D4B
:103C1000E0F4603D7A097B001210BFEA4B60328A03
:103C2000828B8374B1F0A3E4123707A3123705A384
:103C3000E508F0A3E509123C54EEF0A3EF123C5462
:103C4000A3A3E50AF0A3E50BF0900A8DE0F91210AA
:103C5000CB0238FDF08A828B83A3A3A3A3A3227493
:103C6000F41217EBE9FF7E008A088B097808121A14
:103C70004200040D103E923CAE3CC33CD83CED3CAF
:103C8000023D1E3D373D493D773D993DB53DD13D16
:103C9000EF3D74016F70128C828D83E0C3940350EA
:103CA00008E0900B79F0023E2E7E18023E2E740240
:103CB0006F70F68C828D8312456C900B7AE8F0A3BE
:103CC000E980E274016F70E18C828D83E0C394021D
:103CD00050D7E090078180CD74016F70CC8C828DBD
:103CE00083E0C3940550C2E090078280B874016FEE
:103CF00070B78C828D83E0C3940250ADE09007834F
:103D000080A374106F70A27508108E0978081219BC
:103D1000FE7A847B071249301217AA023E2E7401E4
:103D20006F70868C828D83E0C394024003023CA9AD
:103D3000E0900794023CA574016F6003023CA98CDB
:103D4000828D83E0900B7D808D74046F6003023C54
:103D5000A99091AD78081216648D838C8278081230
:103D600014864003023CA98C828D83121682900730
:103D70009612168E023E2EEF6003023CA912071720
:103D8000E9700E12122179501213AD121215023E73
:103D90002E9008297401023CA574016F6003023C57
:103DA000A98C828D83E0C394024003023CA9E09079
:103DB0000795023CA574016F6003023CA98C828DBB
:103DC00083E0C3940A4003023CA9E0900B7C023CD0
:103DD000A574016F6003023CA98C828D83E024F9F5
:103DE000C3940A4003023CA9E0900B7E023CA574F8
:103DF000016F6003023CA9900828E0F88C828D8353
:103E0000E0900828F0E87026E064017021023D8B04
:103E1000C3EA9426EB9400501374026F700E8C82E8
:103E20008D831245661205B5E9FE80020E0EEEF98D
:103E3000023E38740E1217AA7F040218BD74F012E5
:103E400017EB74CC1217948C0A8D0B74441217DF85
:103E5000E0FE74201217DFAC82AD8375839175820A
:103E60003674061216A774201217DFAC82AD8312C7
:103E700011C7E9F508C3940A4003023FA175F00693
:103E8000E9A4F50974261217DFAC82AD837A0E74AB
:103E90002025091249E8700974321217DFE0FF800B
:103EA000027F00900B79E06402700474018001E4E9
:103EB000F50D780D121A02EEFDEFFCA908AA0AAB67
:103EC0000B12124B74011217AA7C147D0079007436
:103ED0000C1217DFAA82AB831210B3740C1217DF17
:103EE000AC82AD837A10742425091249E870377CBE
:103EF0001079FF740C1217DF1247157029741C1209
:103F000017DFAC82AD837A0474252509F91213A753
:103F1000740C1217DFAC82AD83EFA2E0E433F9AA90
:103F20000AAB0B12063F851882851983AC82AD83DC
:103F30007A0C747025081249E87055851882851925
:103F400083AA82AB831211F7750800E50875F003A8
:103F5000A4F8A9F0851882851983E58228F8E583FD
:103F6000124751124566EC4D601D88828983A3A3D8
:103F7000E0F50E750F00780E1219FEAA0AAB0B12AF
:103F8000089D74021217AA0508E508C3940440BBF3
:103F9000EFA2E1500C900780E0F9AA0AAB0B1208DF
:103FA000A374046E702A900B79E06402702290076B
:103FB00094E060047A0180027A00900781E0600456
:103FC000780480027800E84AF9AA0AAB0B1206FFCF
:103FD000790074341217AA7F080218BD74F0121702
:103FE000EBEAFEEBFF8C088D09750A0AE9600C14F8
:103FF000600914602E14607F024082121209E9F5F4
:104000000AC3940A507CE50845096076750E06756A
:104010000F00780E1219FEEEFCEFFD12492C12175C
:10402000AA805F750B00750E06750F00780E1219C9
:10403000FEEEFCEFFDE50B75F00EA4F8A9F074A2FE
:1040400028FA740739FB1210AD74021217AAE9603E
:104050001B850B0AE50AC3940A5027E50845096049
:1040600021AA08AB09A90A1212038016050BE50B59
:10407000C3940A500D80AF12120FE9F50AC3940AD7
:1040800040D9A90A023FD774F41217EB89087509C1
:104090001574FF6A700374FF6B70277E00AC087A9A
:1040A000027B00EEF91211E5E960037509000EEEDE
:1040B000C3940A40E8E50860497A397B12120AB3D2
:1040C0008040120A958A0A8B0BAE0AAF0BEE4F6046
:1040D0002E7C007D00EE2405FAEF3400FB8E828FEB
:1040E0008312417E500CAC087A027B001211E575F8
:1040F0000900E508600CEEFAEFFB12123980037537
:104100000914A909023E3874F21217EBECFEEDFF18
:10411000740E1217DF12455975081574FF6A700383
:1041200074FF6B7021750900AC0AAD0BEEFAEFFB62
:10413000A9091211EBE960037508000509E509C337
:10414000940A503580E2120A958A828B83E5824573
:104150008360237C007D00E5822405FAE58334003A
:10416000FB12417E5013AC0AAD0BEEFAEFFB1211BD
:10417000EB7508008003750814A908024F57A3A324
:10418000A3A3E0F91211C7E9C3940A22C082C08335
:1041900090079AEAF0A3EBF0900780E0FC7D007AAC
:1041A000257B001205B5900780E0F9120819D0832D
:1041B000D08202012274EA1217EB74EC121794EA0F
:1041C000FEEBFFEE240CF514EF3400F515EE240A97
:1041D000F510EF3400F511EE2405F50EEF3400F57F
:1041E0000FEE2409F50AEF3400F50BEE2403F50871
:1041F000EF3400F5098E828F83A3A3E024FA7003C5
:1042000002452224FD70030244511470030242A0AF
:1042100014601024FD7003024422147003024486CB
:10422000024540124585604AE0F583888212456C5C
:10423000880C890DE8450D6039851482851583E069
:10424000F50E780E121A02EE240BF582EF3400F50B
:1042500083E0F9850A82850B831245660A0A0AAB58
:1042600009850C82850D831217E974011217AA02C1
:104270004540850A82850B83121A159007961216FF
:104280008212065174021217AAE97003024540799E
:1042900001850A82850B83124D7C12064B02454034
:1042A0008E828F83A3858212858313E0600302438D
:1042B000FB850E82850F83E0A2E040030243FB7C76
:1042C0000E7D007900851882851983AA82AB83123E
:1042D00010B3EE2408F50AEF3400F50B850A82F5D9
:1042E000831245886019750C06750D00780C12193B
:1042F000FE850A82850B83E02410FCA3E0801A125D
:10430000454AEA4B7003024540750C06750D00786E
:104310000C1219FEEA2405FCEB3400FD740212179E
:10432000DFAA82AB831249301217AA850E82850F4D
:1043300083E0A2E25004D2F08002C2F0A2F0E433A3
:10434000F8740C1217DFE048F08510828511831293
:1043500045886015851082851183E02410F8A3E05C
:104360003400F9888289838003909181780C121639
:1043700064851082851183124588600F85108285BF
:104380001183E0F510A3E0F511800675100075119A
:1043900000850A82850B83124588600B850A828519
:1043A0000B831245598006750A00750B00780C12B4
:1043B00019FA78101219FE780A1219FE85148285EE
:1043C0001583121A158E828F83A3124561740A1207
:1043D00017DFAA82AB831211FD740A1217AA85088F
:1043E0008285098312456C90082AE8F0A3E9F07AE7
:1043F000017B00900780E0F91210EF1245857003F1
:1044000002454012457270030245408512828513B1
:1044100083E0FC7901124D768E828F831217E902B8
:1044200045401245857003024540E0F5838882A32C
:10443000A312456C890BE8450B70030245408E8240
:104440008F83A3E0FC7902124D768882850B8380EE
:10445000CB7C007D00EE2404FAEF3400FB8508825B
:10446000850983E0F91211C7E9F8C3940A400302F1
:104470004540AC10AD117A0475F006E8A42425F986
:104480001213A1024540900795E0600E900B7CE06E
:10449000F9850882850983024297900B79E07004C0
:1044A000790580ED12454A8A0C8B0DA80CA90DE800
:1044B0002404F50CE93400F50D8E828F83A3A3A3A9
:1044C000A3A3A3A3E0A2E05036E8496073850C8261
:1044D000850D83E0FE6028850A82850B83E05410F9
:1044E000701D740E1217DFAC82AD83E82405FAE963
:1044F0003400FBEEF91211C7E9700479038092AC25
:104500000EAD0F850C82850D83E0F9124D761212E7
:1045100045124585602A12457260257C00790002AB
:104520004415120717E97018900829E06401700813
:10453000121221900829E4F079501213AD121215CD
:1045400074141217AA7F0E0218BD8508828509838C
:10455000E0FAA3E0FB120A9522E0F50AA3E0F50BCE
:1045600022A3A3A3A3A3E0FCA3E0FD22E0F8A3E021
:10457000F922E0F5838882A3A3E0F8A3E0F9E8FE3E
:10458000E9FFEE4F2290079AE0F8A3E0F9E849220C
:1045900074F41217EB74F2121794EAFE8C0B75F098
:1045A00006E9A42420F508851882851983AC82AD1C
:1045B000837A0E1249E8704A7C0612470D704374E4
:1045C0000C1217DF12456CE8F509E50B6005EE42A9
:1045D000098004EEF45209850982AA82E86A700112
:1045E000E9601B740C1217DFEAF0A3E4F08518826F
:1045F000851983AC82AD837A0EA9081213A17901C3
:1046000080027900023E3374F21217EB74E612173F
:1046100094890A8A088B09ECFEEDFF740C1217DFEF
:104620001249DB60030246C17C0679FF740C121745
:10463000DF12471560030246C17470250AF50B8529
:104640001882851983AC82AD837A0C1249E8600325
:10465000024706851882851983AA82AB831211F757
:10466000E508450970217C0C790012470F600302B0
:1046700047067C0C7D007900851882851983AA8203
:10468000AB831210B38061851882851983AC82AD2B
:1046900083AA08AB091211F18A0C8B0DA80CA90D85
:1046A000E849702CEE4F6019851882851983AC8219
:1046B000AD837A007B001211F1EAF8EBF9EA4B7056
:1046C000047900804388828983E508F0A3E509F036
:1046D00012478DFAEE6A7001EF602BEEF04F700812
:1046E00088828983E4F0A3F0851882851983AA82E1
:1046F000AB831211F7851882851983AC82AD837A5A
:104700000CA90B1213A17901741A024F5479FF8579
:104710001882851983AA82AB83121113E92274F7D8
:104720001217EB7F00EF75F003A4F8A9F0EC28F85E
:10473000ED124751E06A7003A3E06B7006E8FAE9F6
:10474000FB800B0FEFC3940440DB7A007B00024A2E
:104750008639F9888289832274F71217EB7E00EE7E
:1047600075F003A4F8A9F0EA28F8EB124751E0F439
:10477000FCA3E0F4FD88828983ECF0A3EDF01247FE
:104780008DF4F00EEEC3940440D5024A86E824026C
:10479000F582E93400F583E02274EE1217EB74F42D
:1047A000121794EAFEEBFF8C0A8D0B741E1217DFB2
:1047B000E0F50CA3E0F50D74201217DFE0F508A377
:1047C000E0F50974221217DFE0F510A3E0F511EE11
:1047D0004F7005790A0248BE121209E9F50EC3941A
:1047E0000A4023750F007C0679FFE50F75F00EA4D3
:1047F000FAABF0749C2AFA74073BFB12471970035A
:104800000248C8850F0EE50EC3940A40030248BC57
:1048100075F006E50EA4F50FEEFCEFFD7A0E7420A0
:104820001248D9E50A450B600BAC0AAD0B7A1B7434
:10483000211248D9E50C450D600BAC0CAD0D7A1B6F
:1048400074221248D9E5084509600BAC08AD097A15
:104850001074231248D9E5104511601BAC10AD113E
:104860007A1074241248D974241217DFAC82AD83F5
:104870007A0474251248D97C0C7D0079FF124FE52B
:104880007A0C7470250EF91213A175080E750900C3
:1048900078081219FEEEFCEFFDE50E75F00EA4F897
:1048A000A9F0749C28FA740739FB1249301217AA30
:1048B000900828E0600312125112123FA90E740CE6
:1048C0001217AA7F0A0218BD050FE50FC3940A50FC
:1048D000030247E6750E0A80E3250FF91213A122A1
:1048E00074F41217EB74F2121794EAFEEBFFE9C3AB
:1048F000940A5004EE4F70047902802D8518828549
:1049000019831249DBF508701E750A06750B0078CD
:104910000A1219FE74021217DFAC82AD83EEFAEFB1
:10492000FB1249301217AAA908023E33AA08AB09A4
:1049300012109B74022274F41217EBEAFEEBFF755F
:104940000800750A06750B00780A1219FEEEFCEFD6
:10495000FDE50875F00EA4F8A9F0749C28FA740718
:1049600039FB1210AD74021217AAE96004A908807D
:104970000B0508E508C3940A40C8790A023E38745A
:10498000F71217EB74F0121794EAFEEBFF750800AC
:10499000851882851983AC82AD837A1075F006E59F
:1049A00008A424231249E8701F7C1012470D7018C8
:1049B000EEFCEFFD851882851983AA82AB8312066F
:1049C00021E97004A908800B0508E508C3940A4092
:1049D000BF790A74101217AA024A86AC82AD837A94
:1049E0000E75F006E9A42420F91213A7E92274F742
:1049F0001217EB750800E50875F00EA4F8A9F0741D
:104A00009C28FE740739FFEEFCEFFD7A0E75F00668
:104A1000E5081249E5602C7C067D0079FFEEFAEF8F
:104A2000FB1210B37C067D0079FFEE2406FAEF340A
:104A300000FB1210B3EE240CF582EF3400F583E492
:104A4000F0A3F00508E508C3940A40AA900828E0FE
:104A5000600312125112123F802C74F71217EB7E72
:104A6000007F007C0679FFEF75F00EA4FAABF074BE
:104A70009C2AFA74073BFB12471970010E0FEFC313
:104A8000940A40DFEEF97F010218BD74F71217EBAC
:104A90007E00EEF91212270EEEC3940A5003E9606D
:104AA000F180E374F31217EB74CB121794E9FF75DE
:104AB000F006A4F50874202508FE74271217DFAC51
:104AC00082AD837A0EEE1249E86003024BA57C06A4
:104AD00079FF74271217DF1247156003024BA57C7C
:104AE0000E7D0079FF74271217DFAA82AB831210A4
:104AF000B37C1B7D0079FF740C1217DFAA82AB8395
:104B00001210B37C0C7D0079FF851882851983AA69
:104B100082AB831210B374271217DFAC82AD837A95
:104B20000EEEF91213A1E9F509740C1217DFAC822D
:104B3000AD837A1B7421124BB4FE740C1217DFACD8
:104B400082AD837A1B7422124BB4F50A740C1217CF
:104B5000DFAC82AD837A107423124BB4F50B740C66
:104B60001217DFAC82AD837A107424124BB4F50CAB
:104B7000740C1217DFAC82AD837A047425124BB427
:104B8000F508851882851983AC82AD837A0C747020
:104B90002FF91213A1E9F8EE450A450B450C45081B
:104BA0004842098003750900A90974351217AA7FC4
:104BB000050218BD2508F91213A1E92274F712178E
:104BC000EBE9900780F0121215024A8674F2121770
:104BD000EB74FB1217948A088B09EB548070030264
:104BE0004C70900780E0F91210D78A0A8B0BA80A44
:104BF000A90BE8FEE9FFE849606CEE2404F8EF3405
:104C000000F98E828F83E02450603814600624E11E
:104C1000604A804B88828983E070448E828F83A3B0
:104C2000A3A3A3A3A3A3121A158E828F8312456197
:104C30008E828F83A3A3124D7C1211D3740212179C
:104C4000AA801C88828983E0641E701379008E829A
:104C50008F83A3A3124D7C1211CD80031211DFEEBE
:104C6000FAEFFB1210C5AA08E5096480FB024D713A
:104C7000EAA2E04003024D6D90082A1245597403E0
:104C80001217DF85820C85830D780C1219FE750CC6
:104C900002750D00780C1219FE750CE1750D9178F6
:104CA0000C1219FE7CFF7DFF7A017B0012077174E4
:104CB000061217AA024D55E4F50CF50D780C1219E1
:104CC000FE74041217DF85820C85830D780C12198F
:104CD000FE74041217DF85820C85830D780C12197F
:104CE000FE74091217DF121A157902EEFCEFFDAA05
:104CF0000AAB0B12089174081217AAE970358518CF
:104D000082851983E0FA74011217DFE0F9EA2400C2
:104D1000F50CE439F50DEA450D6018780C1219FE12
:104D20008E828F83124562AA0AAB0B1211D37402D2
:104D30001217AAE4F50CF50D780C1219FE74051281
:104D400017DF121A157CFF7DFFEEFAEFFB12077DCD
:104D500074041217AA8A0C8B0DAE0CAF0DEE4F60C7
:104D600003024CB7E5086401FAAB0980047A007BC2
:104D7000007405024F54850882850983E0FAA3E098
:104D8000FB22C082C083900780E0F98A828B83A3D4
:104D9000124D7C1208A30241AEC082C08374FF1280
:104DA000179412121BE9C394028518828519834057
:104DB0000474028002740AF0AC82AD837A01790532
:104DC00012072F74011217AA0241AE74F21217EBE8
:104DD00074E8121794EAFEEBFF890A8C088D097CAF
:104DE000187D007900124FEDEEF0A3EFF0900782EE
:104DF000E0C0E074021217DFD0E0F0900783E0C05B
:104E0000E074031217DFD0E0F0900B7EE0C0E07496
:104E1000171217DFD0E0F074151217DFE054FEF818
:104E2000A3E0F9900B7DE0A2E0E433FAE84AF874DD
:104E3000151217DF124F63A2E15004D2F08002C2B4
:104E4000F0E854FDFAA2F0E43333F8EA48F87415B8
:104E50001217DF124F63A2E35004D2F08002C2F0B7
:104E6000E854F7FAA2F0E433F50C750D00740378FA
:104E70000C121781124F5C1217DF124F63A2E4501D
:104E800004D2F08002C2F0E854EFFAA2F0E433F565
:104E90000C7404780C121781124F5C1217DF124F3A
:104EA00063A2E55004D2F08002C2F0E854DFFAA217
:104EB000F0E433F50C7405780C121781124F5C1274
:104EC00017DF124F63A2E25004D2F08002C2F0E872
:104ED00054FBFAA2F0E433F50C7402780C1217813B
:104EE000124F5C1217DFE8F0A3E9F0900783E0604F
:104EF0001B750C10780C1219FE7C847D0774061249
:104F000017DFAA82AB831249301217AA900794E0E8
:104F10006011E50A600974151217DFE04402F078A9
:104F2000018002780074141217DFE048F0900781C6
:104F3000E0600478048002780074141217DFE048FF
:104F4000F0AC08AD09851882851983AA82AB83125B
:104F5000064574181217AA7F060218BDEA450CF818
:104F6000741522E8F0A3E9F0900B7DE02274F312AF
:104F700017EB74E5121794EAFEEBFF8C098D0A74A7
:104F8000281217DFE0F50C75F006E9A4F87408653F
:104F90000A700474228002742128F50B7C1B7D00AA
:104FA0007900124FE57A1BA90B1249E97032741A85
:104FB0001217DFE024F9C3940A5025E50CF50B78AD
:104FC0000B121A0274011217DFAC82AD83E509A23D
:104FD000E0E433F9EEFAEFFB12065774011217AA58
:104FE000741B024BAC124FEDAC82AD83228518824C
:104FF000851983AA82AB831210B385188285198321
:105000002274F71217EB120915750800E50875F000
:105010000EA4F8A9F0749C28FE740739FF7C067969
:10502000FFEEFAEFFB1247197009EEFAEFFB790079
:1050300012091B0508E508C3940A40D0024A86C03D
:1050400082C0839061907404F0A37448F0A3E4F0EC
:105050009061807440F09061BC7407F09061877437
:1050600069F09061B67416F07900120B8B79021218
:105070000B9190227CE493F46006E493F9120B67A1
:105080007905120E7F025481C082C083E9540FF962
:10509000906185E0696012E5C654804449F5C6E533
:1050A0009E547F644970F8E9F053C680E59E547FB2
:1050B00070FA02548174F71217EBE5A8FE53A87E2C
:1050C000120B73C2BA539AFEC289759B00C2C212F8
:1050D0000B7975A91175B905120B7FD2BA439A01E4
:1050E00074805E42A8025A0EC082C083906181E43F
:1050F000F0A302547E75E90075910075BF000201AE
:1051000022C082C083906181E4F0A374C0F0A3E464
:10511000025480C082C08374F81217949003C412A2
:1051200058F0E84970030251CA9003C4E05440604B
:10513000237908851882851983AA82AB83120C8192
:10514000851882851983AA82AB831209339003C420
:10515000E054BFF0E054806010790C7A807B051237
:105160000C819003C4E0547FF0E0A2E05008790085
:105170001251D254FEF0E05402600879011251D26B
:1051800054FDF0E05404600879001251DD54FBF046
:10519000E05408600879011251DD54F7F0E0541032
:1051A000600879021251DD54EFF0E0542060087974
:1051B000031251DD54DFF0A3E05401600D120B9D8A
:1051C0001209459003C5E054FEF074081217AA02B4
:1051D0005481120B8B1209399003C4E022120B91F7
:1051E00012093F9003C4E022C082C083E960051425
:1051F000602A804F90619A7433F0A37455F09061E7
:10520000A0743AF090055CE064017009C2919003CB
:10521000C67467802D9003C67461802690619A746D
:105220003FF0A3745AF09061A0747FF090055CE0A9
:1052300064017009D2919003C6747180059003C611
:10524000746AF0025481C082C083E9600B14600D5F
:1052500014600F14601180209022808015902281AC
:105260008010902282800B90055CE0640160F390D6
:105270002283E493906186F002548174EE1217EB5E
:1052800074F4121794851882851983AC82AD8375E6
:10529000839175828D74041216A790228093F46016
:1052A0000302540D907808E0C3940250030253EDBA
:1052B00074041217DFAC82AD8375839175822274FA
:1052C000081216A7F97AFF7BFF7FFF7E008982858F
:1052D0008210801874086E70030253A274096E70F5
:1052E000030253A2740A6E70030253A2E510C33383
:1052F000FCE433FD74041217DFE5822CF582E583AC
:105300003DF583E0F50EA3E0F50F8E0875090074F6
:1053100002780812178174482508FC74783509FD55
:105320008C828D837808121664740878081215A58B
:1053300085080C85090D8C828D837808121664749B
:105340001878081215A5E50C4508F508E50DF509CE
:10535000C3E50E9508E50F95098C828D83780812B8
:1053600016648C828D83780812166474187808404D
:10537000141215A5E50C4508FCAD0DE50EC39CFC0B
:10538000E50F9D800F1215A5E50C4508C3950EFC91
:10539000E50D950FFDC3EC9AED9B5006ECFAEDFB85
:1053A000EEFF0EEEC3941350030252D474FF6A70E2
:1053B0000374FF6B602D8F087402780812178174D4
:1053C0004812609C74783509F58378081216648554
:1053D0001882851983E5822510F582E583125E29FE
:1053E000E508F009E9C3940450030252C5750801A9
:1053F00075090078081219FE74021217DFAC82AD2D
:10540000837AA07B0812129374021217AA740C12EA
:1054100017AA7F0A0218BDC082C083906186E0F897
:10542000902283E493687009902282E493906186CD
:10543000F09061AE7468F0A3746AF090624574FBFA
:10544000F0A304F053F4FD43FE0290055C7401F0F8
:105450009061A0E0643A7004790080027901120B37
:105460008B025481C082C08390050EE06401700AF3
:10547000900513E06004790C800279008003F0A3AA
:10548000F0D083D082020122C082C08375E1F19006
:105490000511E0604D14600814605114604980519A
:1054A000120BAF900507E0F97A087B05120E019008
:1054B0009191121682120E37909171121682120E6D
:1054C0000D900512E0F9120E197901120E73900574
:1054D00005E0241612561674C7F0A3740BF0790079
:1054E000809F120BB580BC120BBB80B7120BC18022
:1054F000B2791280EB74F41217EB75D90D9004F6A3
:10550000E0A2E0E4331313F8125582484401F5D9C0
:10551000780012560040FB7800880874F712609CEF
:10552000740412560A40F275E1959004F6E0F97A97
:10553000F77B04120E07900AAF743DF0A3740B12B0
:10554000562512564512563C12577D12558C780836
:1055500012166490919578081215F090918578084C
:1055600012163E1256107808121673900505E024A4
:10557000141256167413F09003C27402F07F0402E2
:1055800018BD900507E0C4333354C022900505E0F0
:10559000F8A3E0F5838882A3A32274F61217EB1216
:1055A000574E8AD9780012560040FB7800800612C8
:1055B00056B4125800E8C39940F5125740125600ED
:1055C00040FB780080081260987405125800E8C308
:1055D0009940F375E195900AAF7449F0A3740B12EA
:1055E000562512562F12168212561012168E90053C
:1055F00005E024141256167412F09003C20259EBFF
:10560000880874082508F582740512595C940622EE
:10561000900505E0240EF8A3E012561D223400F98F
:1056200088828983221257667443F0A3740B221276
:10563000564512563C12578190918122F0A3745B1B
:10564000F0A3740B221256492212564D22F0A37475
:10565000EDF0A3740C2274F61217EB1256A9125532
:10566000824402F5D9780012560040FB780080068B
:105670001256B4125800E8C39940F575E195900AA6
:10568000AF1256BFF0A31256BF1256321216821234
:10569000561012168E900505E02414125616741436
:1056A000F09003C274040259ED900517E0F97407F5
:1056B00029F5D922880874182508F5827405227402
:1056C000551256CC1256CCF0A3740B22F0A3740BD7
:1056D000F0A374552274F61217EB12574E74064A53
:1056E000F5D9780012560040FB780080061256B4B7
:1056F000125800E8C39940F512574012560040FB7B
:10570000780080081260987405125800E8C3994028
:10571000F375E195900AAF744FF0A3740B12575CC8
:1057200012562F12168212561012168E900505E090
:1057300024141256167415F09003C274030259ED26
:105740009005371256AC74044AF5D97800221256E7
:10575000A9900507E0C4333354C0FA221257667487
:10576000EDF0A3740C2212576A2212577774EDF0F1
:10577000A3740C1257772212564DF0A322125781B0
:1057800022F0900ABD74EDF0A3740C12576A74ED08
:10579000F0A3740C125649F022C082C08312558CBB
:1057A000A3A3A3A3E402547E74F71217EB1262DEE4
:1057B000F8740339F9E82405FAE93400FB8A828B8E
:1057C0008312604D88828983A3A3A3A3A3A3A3A369
:1057D000A3ECF0A3EDF088828983A3A3A3A3A3A3E2
:1057E000A3E024FFF8A3E034FFF98A828B83E8F07A
:1057F000A3E9F0025A0E880874602508F582740542
:10580000125F74F5D90822EAFEEBFF9061D0E0F850
:105810007480C398FAEE24832212581F9404221233
:105820005E37E0F5D90AEAC32274F61217EBEAFEF6
:10583000EBFF9061D0E0707575D90E75D90375D9FD
:10584000047A008A08EE25081263AC248C1258C230
:1058500040F17A008A08EE25081263AC24841258BD
:105860001940F175E1957908EE248C1258BB248417
:105870001258B27C008C82AA82C3E49AF895E0F9AF
:10588000EE28F8EF39F9E8248BF582E9125F70C051
:10589000E0EE2A1263AC24ABF582E9125E29D0E077
:1058A000F00CECC3940840CD1259788002790002C4
:1058B00059EEFAEF3400FB120C75221258B279043B
:1058C000EE2212581F940822C082C08375D9027537
:1058D000D90375D90575E195EA2470F582EB125864
:1058E000EDEA2472F582EB12598A025481125E3A73
:1058F0001258F422E0F8A3E0F92274F61217EBEA4A
:10590000FEEBFF90056074061259661219FE7C01C9
:105910007903125C921217AA75D90675D90378001B
:1059200012594C40FB75E1959003C2E06408701772
:10593000EE2470F582EF1258EDEE2472F582EF122C
:105940005E29E8F0A3E9F079010259EE8808746055
:105950002508F582740512595C940522125E3AE01E
:10596000F5D908E8C322F0750860750905780822A2
:1059700075E1957904120E3DEE2470F582EF125E0A
:105980003A1258F4EE2472F582EF125E3AE8F0A370
:10599000E9F079012274F61217EBEAFEEBFF906151
:1059A000D0E070437901900560740BF09003C2E081
:1059B0006407701775086075090578081219FE7C70
:1059C000010909125C921217AA7905740129F5D907
:1059D00075D903780080031257F6E8C39940F8752B
:1059E000E1951259788002790080037401F07F02FA
:1059F0000218BD74F71217EBEAFEEBFF75D90375B9
:105A0000D90375D90DEE24DE125A131259707F0195
:105A10000218BDF582EF125F74F5D9227F030218D8
:105A2000BD7401250AF5D975D90378002274F512E1
:105A300017EB125AA26004780480027800E8240B65
:105A4000F8EAC3984041750A099005607409F07935
:105A500008125A8B601475086075090578081219C8
:105A6000FE125C8A1217AA750A0D125A21800312BF
:105A700057F6E8C3950A40F775E1957904120E3D93
:105A8000125C077901800279008091EE24E3FCEF3B
:105A90003400FD7A617B05120C6F850882850983CD
:105AA000E022125807F8EF126041F583E02274F308
:105AB0001217EB8A088B09125C9DFAE5082483F51E
:105AC0000AEB125B6C6004780480027800E824081A
:105AD000F8EAC3985003025B65750C069005607484
:105AE0000CF09003DFE0900561F07402C0E0F97CF7
:105AF000E07D037A627B05120C6FD0E0F97CE27DD9
:105B000003120C6F850A82850B83E0601C750A60A6
:105B1000750B05780A1219FE7C067903AA08AB09F1
:105B2000125C921217AA750C0A7401250CF5D9752E
